:040000050000841162
:020000040000FA
:10800000E81700202186000029860000BD970000A7
:108010002D8600002F8600003186000084B1FCDF31
:108020008F9E939B00999697F20000003585000083
:108030003586000000000000BD8500000D860000B0
:108040003B8600003B8600003B8600003B8600002C
:108050003B8600003B8600003B8600003B8600001C
:108060003B8600003B8600003B8600003B8600000C
:108070003B8600003B8600003B8600003B860000FC
:108080003B8600003B8600003D9F00003B860000D1
:108090003B8600003B8600003B8600003B860000DC
:1080A0003B8600003B8600003B8600003B860000CC
:1080B0003B8600003B8600003B8600003B860000BC
:1080C0003B8600003B8600003B86000029A00000A4
:1080D0003B8600003B8600003B8600003B8600009C
:1080E0003B8600003B8600003B8600003B8600008C
:1080F0003B8600003B8600003B8600003B8600007C
:108100003B8600003B8600003B8600003B8600006B
:10840000FFFFFFFFFFFFFFFFFFFFFFFFFEFDFFFF7F
:1084100000F002F800F04AF80AA090E8000C82444C
:108420008344AAF10107DA4501D100F03FF8AFF229
:10843000090EBAE80F0013F0010F18BFFB1A43F042
:1084400001031847B0AC0000D0AC00000A4410F89B
:10845000014B14F00F0508BF10F8015B240908BF99
:1084600010F8014B6D1E05D010F8013B6D1E01F890
:10847000013BF9D1641E03D0641E01F8015BFBD1FE
:108480009142E4D370470000002300240025002619
:10849000103A28BF78C1FBD8520728BF30C148BF67
:1084A0000B6070471FB51FBD10B510BD00F05EFB1F
:1084B0001146FFF7F7FF05F029FB00F07CFB03B442
:1084C000FFF7F2FF03BC00F0E9FA000080F309882F
:1084D0007047EFF309807047684680F309880448C5
:1084E0000078C00714BF0220032080F3148870476F
:1084F0001C1C0100DFF818C0EFF305831B0618BF32
:108500006047EFF31483DB0708BF604700DF704765
:1085100081E90000DFF818C0EFF305831B0618BFE0
:108520006047EFF31483DB0708BF604700DF704745
:108530008DEB0000EFF30980816911F8021C39BB53
:1085400090E80F10E047EFF3098C194B93E8060011
:10855000914218D059B10CB44FF0010381F8213089
:108560002CE9F00FC1F824C006F098FE0CBC1A608C
:10857000D2F824C0BCE8F00F92F821308CF30988BF
:108580001BB192F82000CCF800006FF0020E70478B
:1085900010B5084A1268914209D8074C54F8214096
:1085A00090E80F10A047EFF3098C8CE80F0010BD86
:1085B00040E1FF1F088C0000088C000006F018FD49
:1085C000114B93E8060091421BD00CB44FF000030E
:1085D00081F82130EFF3098C2CE9F00FC1F824C0A9
:1085E00006F05CFE0CBC1A60D2F824C0BCE8F00FA8
:1085F0008CF3098892F821301BB192F82030CCF826
:1086000000306FF0020E704740E1FF1F06F008FFD8
:10861000D6E7000005F03AFC06F002FFD0E70000C4
:108620000948804709480047FEE7FEE7FEE7FEE706
:10863000FEE7FEE7FEE7FEE7FEE7FEE70448054942
:10864000054A064B70470000B99E000011840000E7
:10865000E8140020E8170020E8150020E8150020A5
:10866000004870478814002010B5002000F01CFA64
:10867000FFF71AFFBDE81040012000F00FBA40EAF2
:10868000010310B59B070FD1042A0DD310C808C9E8
:10869000121F9C42F8D020BA19BA884201D9012091
:1086A00010BD4FF0FF3010BD1AB1D30703D0521CDC
:1086B00007E0002010BD10F8013B11F8014B1B1B17
:1086C00007D110F8013B11F8014B1B1B01D1921E81
:1086D000F1D1184610BD10B5431C02E010F8011B83
:1086E00071B18107FAD14FF0013202C88C1A8C4364
:1086F00014EAC211F9D0C01A0A0603D0C01E10BD78
:10870000C01A10BD0A0401D0801E10BD0902FCD0A1
:10871000401E10BD40EA010370B59B072ED14FF0FB
:108720000136042A2AD308C810C99D1B9D43121F75
:1087300015EAC61517D0D8B2E1B2401A50EA056161
:1087400010D198B2A1B2401A50EA05410AD123F0E3
:108750007F4024F07F41401A50EA052102D1180ED3
:10876000A0EB146070BDA342DBD018BA21BA8842D6
:1087700001D9012070BD4FF0FF3070BD0AB9002053
:1087800070BD10F8013B11F8014B63B1A3420AD14F
:10879000521E08D010F8013B11F8014B1BB1A34247
:1087A00001D1521EEDD1181B70BD421E12F8013FBF
:1087B000002BFBD111F8013B002B02F8013BF9D152
:1087C0007047032A40F2568010F0030C00F0158029
:1087D00011F8013BBCF1020F624498BF11F801CBC4
:1087E00000F8013B38BF11F8013BA2F1040298BF29
:1087F00000F801CB38BF00F8013B11F0030300F093
:10880000B080121FC0F03680A1EB0301022BD1F81B
:1088100000C000F0118000F21E804FEA1C2351F8C6
:1088200004CF121F43EA0C6340F8043BBFF4F5AFDA
:1088300001F1010100F01EB84FEA1C4351F804CFCA
:10884000121F43EA0C4340F8043BBFF4F5AF01F1BB
:10885000020100F00FB84FEA1C6351F804CF121F59
:1088600043EA0C2340F8043BBFF4F5AF01F10301E8
:10887000AFF30080D20724BF11F8013B11F801CB00
:1088800048BF11F8012B24BF00F8013B00F801CBD1
:1088900048BF00F8012B7047431A28BF9A427FF661
:1088A00090AF032A1044114440F2498010F0030FA6
:1088B0001EBF11F8013D521E00F8013D10F0030FDC
:1088C0007FF4F6AF11F0030300F00881121FC0F02F
:1088D0003680A1EB0301022BD1F800C0C0F011805B
:1088E00000F21E804FEA0C4351F804CD121F43EAF8
:1088F0001C4340F8043DBFF4F5AF01F1020100F064
:108900001EB84FEA0C6351F804CD121F43EA1C2332
:1089100040F8043DBFF4F5AF01F1010100F00FB8DC
:108920004FEA0C2351F804CD121F43EA1C6340F8B0
:10893000043DBFF4F5AF01F10301AFF30080D207AE
:1089400024BF11F8013D11F801CD48BF11F8012CE9
:1089500024BF00F8013D00F801CD48BF00F8012C0C
:10896000704710B5203AC0F00B80B1E81850203A9B
:10897000A0E81850B1E81850A0E81850BFF4F5AFBF
:108980005FEA027C24BFB1E81850A0E8185044BF49
:1089900018C918C0BDE810405FEA827C24BF51F8B6
:1089A000043B40F8043B08BF7047D20728BF31F8AA
:1089B000023B48BF11F8012B28BF20F8023B48BFFB
:1089C00000F8012B704702F0FF0343EA032242EA5A
:1089D000024200F002B84FF000020429C0F01280F9
:1089E00010F0030C00F01B80CCF1040CBCF1020F62
:1089F00018BF00F8012BA8BF20F8022BA1EB0C0137
:108A000000F00DB85FEAC17C24BF00F8012B00F82C
:108A1000012B48BF00F8012B70474FF0000200B552
:108A2000134694469646203922BFA0E80C50A0E891
:108A30000C50B1F12001BFF4F7AF090728BFA0E83F
:108A40000C5048BF0CC05DF804EB890028BF40F80B
:108A5000042B08BF704748BF20F8022B11F0804F4D
:108A600018BF00F8012B7047427801788378C078EE
:108A700041EA022141EA034141EA006070474FEABE
:108A8000102208704A704FEA10428A704FEA106252
:108A9000CA7070477047704770470000014918203E
:108AA000ABBEFEE72600020010B500F047F8BDE8B7
:108AB000104000F03EB8431A28BF9A427FF651AFEB
:108AC000104410F0030F11441EBF11F8013D521E57
:108AD00000F8013D10F0030F7FF4F6AF103AC0F03C
:108AE0000A8010B531E91850103A20E91850BFF447
:108AF000F9AFBDE81040530724BF31E9081020E961
:108B0000081044BF51F8043D40F8043D12F0030F33
:108B100008BF7047D20728BF31F8023D48BF11F89F
:108B2000012C28BF20F8023D48BF00F8012C7047F7
:108B30007047002801D0FFF7B1BF704710B5002182
:108B400002A000F041F8012010BD00005349474148
:108B50004252543A2041626E6F726D616C207465AE
:108B6000726D696E6174696F6E0000007546FFF783
:108B700077FDAE4605006946534620F0070085465E
:108B800018B020B5FFF75AFDBDE820404FF00006B1
:108B90004FF000074FF000084FF0000B21F00701E5
:108BA000AC46ACE8C009ACE8C009ACE8C009ACE828
:108BB000C0098D46704710B50446AFF300802046CB
:108BC000BDE81040FFF77BBC70B505460C460A2097
:108BD00000E06D1C00F011F835B128780028F8D1BC
:108BE00002E0641C00F009F814B120780028F8D1E4
:108BF000BDE870400A20AFF3008008B569468DF8E3
:108C000000000320ABBE08BD0000000010B50078D6
:108C100028B1012803D000200870012010BD13489E
:108C2000012220230270124840F8843F402340F87C
:108C30007C390264102303600223C363C46844F0D8
:108C40001004C460046844F010040460046C44F030
:108C500001040464C363C36C43F00203C364054BA3
:108C600040F2131058600A70D7E7000050E2FF1F6F
:108C700000F00F4000A004402DE9F8430278A2F173
:108C800080031F2B03D800F00FF9BDE8F88301F82B
:108C9000012B0C4610F8011B022201260025DFF8EB
:108CA000EC814FF0FF0917296FD2DFE801F00C3893
:108CB000484CABBCC8EAD6626AEAEAEAEAEA6F73F1
:108CC00096A0DADADA000078631C0021052823D0A8
:108CD00008DC012820D002281ED003281CD004283C
:108CE0001AD108E0062817D0F0280BD0FE2810D0A3
:108CF000FF2811D108E0042265491846FFF761FDFD
:108D0000042109E01E7006E0402018705D70022109
:108D100002E00520187001212170881CB5E7017858
:108D200021B1012908D084F8009006E04078594923
:108D300000F00100C0430860257001208BE021464F
:108D4000FFF764FF87E0544988F8005030464E64CE
:108D500010234B604A644A6D22F002024A654F4973
:108D60004A6842F080724A6040F213124A602570ED
:108D700071E04178027842EA01200001401EFDD1F5
:108D80004FE065702570104665E07AE0214600F0FE
:108D9000E9FA60E0C778FFF767FE67F31F6038B154
:108DA0003F49884207D388F80160C8F8046038E07A
:108DB00084F800900FE03B4A88F801500244B2FB6F
:108DC000F0F0022803D90322B0FBF2F000E001200A
:108DD000C8F8040025E030463DE010F8012B0AB940
:108DE0004FF480720146104601F03EF819E0007819
:108DF00000F00302521C88F81420C0F3800088F8A9
:108E000015000EE0027888F808208278437843EA5B
:108E10000222A8F80A200279C37843EA0220A8F8BF
:108E20000C002570D7E798F80010012903D02570B1
:108E3000657002200FE0214600F0A4F80BE098F8DE
:108E40000010012904D025706570A570032002E090
:108E5000214600F0F5F9401C17E798F800100129A9
:108E600003D084F8009002200FE70779401CFFF739
:108E7000FBFD67F31F6000906946002000F05CFD79
:108E8000CFE704F8019C0120FFE6000050E2FF1F3D
:108E9000561B01001018FE4300F00F4000A00440D4
:108EA000001BB700FF356E0170B500780C468028B6
:108EB00003D0FF200870012070BD04F0ABFC064613
:108EC000FFF709FCC5B28020207065702A46314644
:108ED000A01CFFF776FCA81C70BD00002348816B26
:108EE00041F4F0518163224A4FF4A071516121484D
:108EF0002023C0F8843050F8943F43F0200340F81A
:108F00007C3991614023C366C36F43F04003C3675C
:108F100040F20313D361C26F22F08002C267164A87
:108F200011600123C362C36B43F00103C363134B9E
:108F30001961102140F8141C50F8043C43F0100350
:108F400040F8043C40F2231353600222C262C26B19
:108F500022F00202C263DA1E094B1A61C0F8B01097
:108F600050F8BC1F41F010010160704700800440C0
:108F700000B0044000F00F4000A004400090044006
:108F800000C004402DE9F04F054685B00020DFF811
:108F9000A892CDE901018C1C89F800006978064689
:108FA0008246DFF898B2AD1C049102E115F8018BFE
:108FB0005FEA88717DD576B3BBF80A7008F01100BE
:108FC000012807D04E4669460E2000F0B5FC022865
:108FD0000DD011E06946404600F0AEFC02280CD1ED
:108FE0007F1E03D399F800100029F3D01AE17F1EE9
:108FF00002D331780029E6D000260128F6D1009965
:1090000004F8011B0A0A04F8012B0A0C04F8022BCD
:10901000090E04F8011C5FEAC8614BD5EF782846B9
:10902000FFF722FD67F31F600390BBF80CA02D1D16
:109030005FEAC87011D0BBF80A700021404600F00A
:109040007BFC022802D00128D0D106E07F1ECDD3C0
:1090500099F800100029F0D0E4E0BBF80A706946E6
:10906000404600F069FC022802D0012815D106E034
:109070007F1E12D399F800100029F0D00DE0DBF824
:109080001010009A1140039A914206D0BAF1010AD9
:1090900003D399F800100029DFD0DBF81010009AF4
:1090A0001140039A914201D040F01000012816D1DE
:1090B00034E035E0BBF80A705FEAC87112D06EBBCD
:1090C0004E460021404600F037FC022802D001281D
:1090D00005D105E07F1E02D331780029F1D0A1E04F
:1090E00001261BE06946404600F026FC022802D01B
:1090F000012806D106E07F1E03D399F8001000294D
:10910000F0D08FE0009904F8011B0A0A04F8012B43
:109110000A0C04F8022B090E04F8011C002141E09E
:10912000F6B1BBF80A604F4669460E2000F004FC19
:10913000022802D0012875D105E0761E72D3397855
:109140000029F1D06EE0009804F8010B010A04F840
:10915000011B010C04F8021B000E04F8010C002690
:10916000EF782846FFF780FC67F31F602D1D009005
:109170005FEA886103D5CBF81000012013E0BBF84B
:109180000A706946404600F0D7FB022802D0012849
:1091900048D106E07F1E45D399F800100029F0D091
:1091A00040E001218A460199491C019199F800107B
:1091B00029B90499491E0491491C7FF4F7AE01288E
:1091C00030D1F6B1BBF80A504E4669460E2000F089
:1091D000B3FB022802D0012824D105E06D1E21D363
:1091E00031780029F1D01DE0009904F8011B0A0A2A
:1091F00004F8012B0A0C04F8022B090E04F8011CD8
:1092000010E0BAF1000F0DD0BBF80A504E46002115
:109210000E2000F091FB022804D16D1E02D331789C
:109220000029F4D0DDE9011211700299487002980A
:1092300005B0201ABDE8F08F04E0FF1F50E2FF1FC9
:109240002DE9F84F0025DFF814B1024628468A467A
:10925000CE1C8BF8005091785378D21C53EA01242D
:1092600070D012F8019B90465FEA89715AD55FEA87
:10927000C97137D03A4847890021484600F05CFB65
:10928000022802D001285DD12CE07F1E5AD39BF822
:1092900000100029F0D055E024B95FEAC97001D070
:1092A0004FF00E092E48D84647896946484600F0D7
:1092B00043FB022802D0012844D106E07F1E41D39F
:1092C00098F800100029F0D03CE0009906F8011B46
:1092D0000A0A06F8012B0A0C06F8022B090E06F8FA
:1092E000011C6D1C641ED7D22CE0404698F8037018
:1092F000FFF7BAFB67F31F600090194808F10408F4
:1093000047896946484600F017FB022802D0012829
:1093100018D106E07F1E15D39BF800100029F0D06D
:1093200010E06D1C641EE0D20D485F4644890021A8
:109330000E2000F001FB022804D1641E02D339780C
:109340000029F4D08AF800502A0A8AF801208AF805
:109350000200A6EB0A00BDE8F88F000004E0FF1F42
:1093600050E2FF1F2DE9F04110F8015B0F4610F8A5
:10937000014BC678FFF778FB304966F31F60E207C0
:1093800008D0EB074FF0200202D0C1F8842001E0A2
:10939000C1F88820A20708D5AB074FF0400202D5DC
:1093A000C1F8842001E0C1F88820220602D5244BB0
:1093B000EA091A60002290B3224B984200D918465D
:1093C0004FF0E0239A61204E7043204EB0FBF6F040
:1093D000586105201861E00700D0D5B9A00706D56F
:1093E000D1F89000C0F3C010B0EB550F11D1600759
:1093F00002D5B2EB950F0CD1A00602D5B2EB551FEA
:1094000007D120060AD5086DC0F34000B0EBD51F88
:1094100004D01869C0F300400028DCD01A61D1F8EC
:109420009000096DC0F3C01042EA4000490840EACC
:10943000C11038700120BDE8F081000000F00F403D
:109440000408FE43C0C62D00006CDC0240420F0041
:109450000448022141606421418101210175FFF727
:109460003DBD000050E2FF1F70B5094D04460146A6
:10947000084B2846EA6800F00FF8002807D121467B
:109480002846EA68BDE87040002300F003B970BDCB
:10949000E80500206B66656B2DE9F04788B016463D
:1094A0009A460C4680466A4603F012FF3246214631
:1094B0004046049B03F0D4FC050029D1DDE90047B8
:1094C0002644761EB6FBF7F007FB106020B1B6FB12
:1094D000F7F6761C7E43761EDFF84090B44213D830
:1094E00024F07F4040F01061C9F80410504603F0AA
:1094F000CFFC00280CD1404603F0D4FC0546D8F838
:10950000100000B1804735B1404603F081FC284689
:1095100008B0BDE8F0873C44E0E7000000000240EE
:1095200070B504002AD01848C06CC0F303600F283F
:1095300026D0164931F8100080020025C4E90050F9
:109540000120A06065618002A561C4E90305204691
:1095500003F07AFC50B10E48A0F18001C0E900513F
:1095600040318160E061204600F014F84FF0A050D7
:1095700020624FF400606062002070BD042070BD66
:109580004FF40030D9E70000008004401C200100A7
:109590009C06002070B510B3C4691648402220F024
:1095A00001011548656820F00100884202D9421A7D
:1095B000402A12D82846FFF704F911480F4E20F030
:1095C00001016D1C0F483560402220F00100A568A4
:1095D000884206D9421A402A03D9FFF745F80420E9
:1095E00070BD2846FFF7EDF86D1C02207560206005
:1095F000002070BD91D500009DD5000010E1FF1F37
:1096000035CE000047CE00002DE9F04389B01F465B
:1096100014000D4680460ED06A4603F059FE3A46C5
:1096200029464046039B03F01BFC060004D1DFF8EB
:109630006090009D25E0042009B0BDE8F08302CCD5
:109640004846C9F808100399042902D0082905D012
:109650000BE025F07F4141F0C06105E002CCC16024
:1096600025F07F4141F0E0614160404603F01AFC83
:109670000646D8F8100000B1804726B90398054483
:109680003F1A002FDBD1404603F0C2FB3046D3E740
:10969000000002402DE9F04F89B0154699460C466E
:1096A00083466A4603F014FE2A4621465846059B27
:1096B00003F0D6FB002831D16A462146584603F014
:1096C00007FE009EDDF808807142C8F100000140ED
:1096D0004F42B74200D14744DFF848A01BE0BC1B13
:1096E000AC4200D92C46059826F07F41B4FBF0F03F
:1096F00041F08072CAF80420020442EA092040F0D6
:10970000FF00CAF80800584603F0CCFB002805D13A
:109710002D1B26444744002DE1D1002009B0BDE8AF
:10972000F08F0000000002402DE9F04F89B01D00CD
:10973000DDE91279DDF8508016460C46834612D0DA
:109740006A4603F0C5FD324621465846079B03F0A2
:1097500087FB002808D16FF07F41DFF85CA041EA69
:109760000767009C25E0042009B0BDE8F08F24F0D5
:109770007F4040F00071CAF80410CAF808702968E8
:10978000CAF80C10584603F08DFB58B1B9F1000F20
:1097900001D0C9F80040B8F1000FE5D00022C8F8A8
:1097A0000020E1E70799761A21F003010D4407999B
:1097B0000C44002EDBD1D7E700000240A72208A10D
:1097C000002002F0FBFEBFF34F8F10480168104AE3
:1097D00001F4E06111430160BFF34F8FFEE7000029
:1097E0002E2E5C2E2E5C2E2E5C736F757263655C64
:1097F0006461706C696E6B5C696E746572666163DE
:10980000655C6D61696E2E63000000000CED00E088
:109810000400FA05094810B54CF22051C1814DF6FB
:109820002811C181018821F0010101800448FFF75E
:1098300077FE002800D0012010BD00000020054068
:10984000E80500201CB506F099FA00281CD09E20DF
:109850008DF80000E7208DF801006946102000F027
:1098600003FB012406F08AFA00280DD000208DF8B1
:1098700000006946082000F0F7FA01A9002006F070
:1098800048FA012801D104B11CBD00201CBD00F024
:109890001F02012191404009800000F1E020C0F842
:1098A0008012704700F01F020121914040098000A2
:1098B00000F1E020C0F88011704700F01F02012184
:1098C00091404009800000F1E020C0F8001170478D
:1098D00000F01F02012191404009800000F1E020CA
:1098E000C0F8001170470000BFF34F8F04480168B3
:1098F000044A01F4E06111430160BFF34F8FFEE7BA
:109900000CED00E00400FA05FEB50C460B460646D9
:10991000014615460748FFF777FE002809D10121C7
:10992000CDE9001002902B46224631460148FFF750
:10993000FBFEFEBDE8050020034A52780AB100F0A4
:1099400005B800F0FBB8000050E2FF1F2DE9F0431E
:10995000DFF8DCC10122CCF81820764E2027C6F8AB
:109960008870C6F88470CCF81800C6F88870C6F8FD
:1099700084704208CCF81820C6F88870C6F8847045
:1099800083188208CCF81820C6F88870C6F884704E
:109990001344C208CCF81820C6F88870C6F8847042
:1099A0001A44CCF81820C6F88870C6F884700022D3
:1099B000CCF81820C6F88870C6F884700122CCF85C
:1099C0001820C6F88870C6F8847090467264DFF874
:1099D000689199F81420131E05D0C6F88870C6F84F
:1099E0008470521EF9D1C6F88870DCF81C22C6F8C3
:1099F0008470C6F88870DCF81C42C6F8847042EAAD
:109A00004402C6F88870DCF81C42C6F8847042EA4A
:109A10008402012A12D0022A65D0042A63D021339D
:109A200005D0C6F88870C6F884705B1EF9D1C6F8F8
:109A30004880CCF81880D0B2BDE8F083800726D5E6
:109A400000252B462020C6F88870DCF81C42C6F89A
:109A500084706D08234445EAC475401EF3D1C6F8EE
:109A60008870DCF81C02C6F884704340D80700D028
:109A7000082201B10D6099F8140028B1C6F8887069
:109A8000C6F88470401EF9D1C6F848801BE02BB19F
:109A9000C6F88870C6F884705B1EF8E7C6F8488080
:109AA000002308682021CCF81800C6F88870C6F892
:109AB000847003444008491EF5D1CCF81830C6F82C
:109AC0008870C6F8847099F8080040B10021CCF87D
:109AD0001810C6F88870C6F88470401EF9D10120AD
:109AE000CCF81800A7E799F8154044B1810706D5CE
:109AF0002121C6F88870C6F88470491EF9D12BB1AF
:109B0000C6F88870C6F884705B1EF8E7C6F848800F
:109B1000002CE4D08007E2D40020CCF818002120EB
:109B2000C6F88870C6F88470401EF9D1D7E70000E7
:109B30000010FE4300F00F4050E2FF1F2DE9F04FF0
:109B4000C64E8A4600230121B161C54D2027C5F8C4
:109B50008870C44C61680A46521EFDD1C5F88470F5
:109B60000A46521EFDD1B061C5F888700A46521EE1
:109B7000FDD1C5F884700A46521EFDD103EB000CDE
:109B80004308B361C5F888700A46521EFDD1C5F876
:109B900084700A46521EFDD19C448308B361C5F807
:109BA00088700A46521EFDD1C5F884700A46521EBE
:109BB000FDD19C44C308B361C5F888700A46521EA3
:109BC000FDD1C5F884700A46521EFDD10CEB03028C
:109BD000B261C5F888700A46521EFDD1C5F884707E
:109BE0000A46521EFDD1B261C5F888700A46521E5F
:109BF000FDD1C5F884700A46521EFDD10122B26122
:109C0000C5F888700A46521EFDD1C5F884700A4610
:109C1000521EFDD14FF00109C5F84490237DB3F1E8
:109C2000000C0BD0C5F888700A46521EFDD1C5F84D
:109C300084700A46521EFDD15B1EF3D1C5F88870B0
:109C40000A46521EFDD1D6F81C22C5F884700B4678
:109C50005B1EFDD1C5F888700B465B1EFDD1D6F8A2
:109C60001C32C5F884708846B8F10108FCD142EA7C
:109C70004303C5F888700A46521EFDD1D6F81C224F
:109C8000C5F88470A3460C46641EFDD143EA8203E6
:109C9000012B1AD0022B7DD0042B7BD01CF1210C80
:109CA0000CD0C5F888700846401EFDD1C5F88470F8
:109CB0000846401EFDD1BCF1010CF2D14846C5F862
:109CC0004890B061D8B2BDE8F08F800741D54FF021
:109CD000000C64462022C5F888700846401EFDD15D
:109CE000D6F81C02C5F884708846B8F10108FCD18A
:109CF0004FEA5C0C04444CEAC07C521EEBD12A466D
:109D0000C5F888700846401EFDD1D6F81C02B8463A
:109D1000C2F88470491EFDD14440E00700D00823FA
:109D2000BAF1000F01D0CAF800C09BF8141069B155
:109D3000DBF80440C2F888802046401EFDD1C2F8FE
:109D400084802046401EFDD1491EF3D1C2F84890C0
:109D500034E0BCF1000F0CD0C5F888700846401EF6
:109D6000FDD1C5F884700846401EFDD1ACF1010C50
:109D7000EFE7C5F84890DAF800004FF0000C202417
:109D8000B061C5F888700A46521EFDD1C5F88470CE
:109D90000A4600E027E0521EFBD184444008641EBE
:109DA000EED1C6F818C03A462C46C5F88870084669
:109DB000401EFDD1C4F88420491EFDD19BF8081037
:109DC00079B10020B061DBF80420C5F88870104636
:109DD000401EFDD1C5F884701046401EFDD1491EBD
:109DE000F3D101206DE79BF81580B8F1000F0ED07C
:109DF00082070CD52124C5F888700A46521EFDD171
:109E0000C5F884700A46521EFDD1641EF3D1BCF120
:109E1000000F0CD0C5F888700A46521EFDD1C5F857
:109E200084700A46521EFDD1ACF1010CEFE7C5F873
:109E30004890B8F1000FD4D08007D2D40020B06190
:109E40002122C5F888700846401EFDD1C5F88470EF
:109E50000846401EFDD1521EF3D1C2E70010FE435A
:109E600000F00F4050E2FF1FF0B5124C00231A46DD
:109E70004FF0400C0E4E2027656816E012B911F81D
:109E8000013B0822DC0702D0C6F884C001E0C6F816
:109E900088C0C6F888702C46641EFDD1C6F8847050
:109EA0002C46641EFDD15B08521E401EE6D2F0BD5A
:109EB00000F00F4050E2FF1F1C484CF22051C181BE
:109EC0004DF62811C1814FF4E971018018494FF412
:109ED0008810486417480021017017480173242234
:109EE00042709A220270C27802F01F02C2700322EE
:109EF0000271417181798907FCD58179C1F38101B2
:109F00000229FAD102714021417181798906FCD57B
:109F100081794906FCD51A2101708179C1F381014B
:109F20000329FAD181794906FCD570470020054004
:109F3000008004400050064000400640F8B52B4E1B
:109F40003479F078800601D424F02004F0780006FB
:109F500001D424F0800420062AD5254DD5F8080226
:109F6000D5F80C12884201D0012000E00020F82230
:109F700020A102F023FBD5F804022918401CC5F8E3
:109F800004020878F071D5F80402C0F30800C5F89F
:109F90000402D5F80C02401CC5F80C02D5F80802E2
:109FA000D5F80C12884203D1F07820F08000F070D0
:109FB000A00605D514F0060F03D0F0798DF8000047
:109FC000F8BDF2791748D0F800124318491CC0F8C0
:109FD00000121A70D0F80012C1F30801C0F8001284
:109FE000D0F80812491CC0F80812F8BD00B00640AD
:109FF000A80600202E2E5C2E2E5C2E2E5C736F7514
:10A000007263655C6869635F68616C5C66726565F4
:10A010007363616C655C6B323064785C756172741B
:10A020002E630000B808002002490820C1F8800112
:10A0300002F030BA04E000E0002070470348D0E9A5
:10A040000410081A02490988081A70477CE1FF1FAA
:10A050005E20010070B50B4D0C460346D5E90C019E
:10A0600088420BD9401A844200DD04462246184635
:10A07000FEF7A7FB686B2044686300E000242046DD
:10A0800070BD00007CE1FF1F002070472DE9F0410A
:10A09000194F0C460646D7E90401401A17490988AA
:10A0A000081A002802DC0020BDE8F081844200DDAF
:10A0B0000446D7E90602002590420FD3104B02193F
:10A0C00019448A420AD30D1A98462A463146FEF7A9
:10A0D00078FB2E44641B4046C7F8188034B12246F2
:10A0E0003146FEF76EFBB8692044B86139696019E2
:10A0F00001443961D8E700007CE1FF1F5E200100C8
:10A10000CA0B002010B5054C6068002805D101205D
:10A11000606000F005F80020606010BD7CE1FF1F6A
:10A120002DE9F047244CA06800283ED0D4E9040172
:10A13000421AE0684FF0000652EA000137D021468B
:10A140001E4FC969DFF87880DFF878901E4D7AB12C
:10A15000A069814205D338888B182844834200D3F4
:10A16000421A99F8003038F81300904200DA02469B
:10A170001648E660007840F0800002F0AFF9E1692F
:10A180000144E1616269024462613B882B448B4275
:10A1900000D1E561216991420BD199F8002038F88E
:10A1A0001210814205D10120E060BDE8F087A66071
:10A1B000FBE7E660F9E700007CE1FF1F5E2001009D
:10A1C00062200100BFE1FF1FCA0B00205C200100DC
:10A1D00010B50B4C206A18B1A06A401CA06210BDDB
:10A1E00001202062606200F00DF8002060622062B1
:10A1F000D4E90C018842F2D0401AFFF745FF10BDA8
:10A200007CE1FF1F10B5134C1348164B216B0A1A43
:10A2100012481B780088821A114830F813008242D5
:10A220000EDB1148007801F02DFD216B08442063FE
:10A23000A06A00280CD0616A002909D1401E06E0FE
:10A240000120E062606A002802D0A06A401CA0627F
:10A2500010BD00007CE1FF1F0A0C002060200100FF
:10A2600062200100BFE1FF1F5D20010010B5044620
:10A27000400702D52046FFF7ABFF200704D5204654
:10A28000BDE81040FFF73EBF10BD7047002070478B
:10A290000020704710B50C4800F01EF8002812D0BE
:10A2A0000948FEF7E1FB0949020A08704A70020CEE
:10A2B0008A70000EC870044802790A7142794A71A6
:10A2C00080798871012010BDB4E1FF1FC80A002009
:10A2D00010B500F017F810BD70B50446084805F039
:10A2E00041F900280BD0064D21462868FEF7C7FB30
:10A2F0002879A07168796071A8792071012070BDFA
:10A3000048E2FF1F05F038B905F098B90120704701
:10A3100010B50446FEF7A8FB07490860A07908714C
:10A3200060794871207988710020C871BDE81040BB
:10A33000084605F08FB9000048E2FF1F10B511482C
:10A340000024114944608460C4600461C0E905418F
:10A35000C0E9071444620D498462C0E90B414163BE
:10A360000480FFF7D1FF07494FF416503831FEF74C
:10A3700086FB044808213830047144718171FFF76D
:10A38000C7FF10BD7CE1FF1FCA0B00200A0C002094
:10A3900010B5FFF7D3FF10BD70B5174C002501268F
:10A3A000206A50B9D4E90C01884206D11349884289
:10A3B00003D02163E56225626163A06A70B1206AFF
:10A3C00060B9E06A50B92662FFF71CFF2562D4E944
:10A3D0000C01884202D0401AFFF756FED4E9010171
:10A3E000084308D1D4E90401884204D06660A6601D
:10A3F000FFF796FE656070BD7CE1FF1F0A0C002030
:10A4000010B50B4CDFF82CC028B100DF2060002015
:10A4100005F0CEFF0AE000DF2168401AB0F5967F14
:10A4200001D3012000E0002003F0AEFB012010BDAD
:10A4300044E2FF1F61F400000020704700207047D5
:10A44000024910B50880FFF761FF10BD7CE1FF1FD6
:10A4500070B50A4C2046E578FEF706FB65F31F60F1
:10A460000749FEF70CFB06482179017161794171BA
:10A47000A1798171FFF74CFF70BD0000C80A002070
:10A48000B4E1FF1F01078A0E0449114411F8C02FDF
:10A4900022F002020A7001F085BF00000020074090
:10A4A000014680784A790B7943EA0221020601D4F9
:10A4B000014A115401F076BF30E1FF1F704700F0F0
:10A4C00071BA00000A49002811F8940F06D040F034
:10A4D00001000870102081F87400704720F001001E
:10A4E00001F8740B087820F0100008707047000025
:10A4F0000020074010B50B4C0B48A2880078824220
:10A5000000D902461AB90749002014390871802081
:10A51000216801F0E3FF216801442160A188081A45
:10A52000A08010BDD0E1FF1F3E20010010B5064CF9
:10A530000020A288216801F0A5FB21680144216068
:10A54000A188081AA08010BDD0E1FF1F704700004D
:10A550000949020607D5000701EB906010F8C01FFB
:10A5600021F0050105E001EB800010F8C01F21F08B
:10A5700009010170704700000020074009490206E8
:10A5800007D5000701EB906010F8C01F41F00501EE
:10A5900005E001EB800010F8C01F41F009010170D7
:10A5A00070470000002007402DE9F047684F04463F
:10A5B000A7F1080580074FF00009A5F1140620D582
:10A5C00001F060FF3878C009FFF7C0FFF888A88065
:10A5D0003878C0F3411111B1012966D157E079787B
:10A5E000DFF870810C2960D2DFE801F0060C5F1300
:10A5F0005F18275F2B31384601F0B6FC1FE0FFF7EC
:10A6000079FF5EE0002005E001F04CFFD8F8000083
:10A6100039E0012001F0E8FCC0B3F5E710F01F0FAE
:10A6200043D1B878012140F08000307000F07F0005
:10A6300001F012FF01F036FF43E001F0ABFB28B35D
:10A64000DDE710F01F0F30D141481B3812E001F058
:10A650001BFDD8B101F026FF3F4813E000F01F00BA
:10A66000012822D1707888B13879B17888421CD21B
:10A670003A4908442860C2E701F0CCFD30B101F04E
:10A6800011FF37480068E0B180471AE00DE010F094
:10A690001F000AD0012808D100F0FAF888B900F0AC
:10A6A0004DF970B900F0A2F858B93878000603D413
:10A6B000F88808B1002000E0802001F0D7FEA5F85E
:10A6C0000490600721D5387800061CD4A888E0B132
:10A6D000FFF72CFFA888C0B93878C0F3411161B1E9
:10A6E00001290AD110F01F0007D0012805D100F080
:10A6F00065F850B900F036F838B9802001F0B6FEA0
:10A70000A5F8049001E001F0D3FE200712D53878B7
:10A71000000606D5A888317908430BD0FFF7EAFE7A
:10A7200008E03078010605D500F07F003070002188
:10A7300001F092FE600602D50020FFF7A3FE20067E
:10A7400004D5BDE8F0478020FFF79CBEBDE8F08748
:10A75000D8E1FF1FC4200100BC20010020E1FF1F41
:10A76000C020010010B51249124A087912789042AF
:10A7700003D0114A1278904217D1487820B10228AC
:10A7800005D0202811D10DE0FFF756FE05E0C8786E
:10A79000897841EA0020FFF751FE30B101F082FED6
:10A7A000012010BDFFF754FEF7E7002010BD0000A8
:10A7B000D8E1FF1F5A2001005B20010010B50948B5
:10A7C000094A01791278914209D14078092806D1C5
:10A7D00000F0ECFA18B101F065FE012010BD002078
:10A7E00010BD0000D8E1FF1F3F20010070B52349D4
:10A7F000234A08791278904203D0224A1278904274
:10A800003AD11E484978204CC27883781F4D43EADC
:10A81000022004291FD007DC79B101290FD00229B9
:10A820000BD0032928D111E0202906D0212919D0E5
:10A8300022291AD023291FD11AE02C6010E0FFF73B
:10A8400027FD05E02C60FFF755FE09E0FFF71EFD30
:10A850000028F7D110E0FFF7EFFB0BE001F022FE3C
:10A86000012070BDFFF716FDF2E7FFF7E9FD01E0FB
:10A87000FFF7C6FD0028F1D1002070BDD8E1FF1F11
:10A880005A2001005B200100C80A0020D0E1FF1F10
:10A890002DE9F041224E23493079097888423CD194
:10A8A0007078214C214D224F0C2836D2DFE800F081
:10A8B0003506212C353535353516243100F092F921
:10A8C00058B3F078012802D0032803D003E01948D8
:10A8D000206000E02560FFF70DFE12E0F07802280E
:10A8E00002D0032803D00CE01348206009E0256063
:10A8F00007E000F05FF909E000F032FA0BE001F048
:10A90000D1FD0120BDE8F08100F062F928B1276097
:10A91000E1E700F041FA0028F1D10020F2E7000061
:10A92000D8E1FF1F3F200100D0E1FF1F2AE1FF1FF8
:10A93000C80A0020090B00204A0B002010B515485A
:10A94000154A01791278914222D101464278C8789D
:10A950008B788C7943EA0020CB79FE2A44EA0321E4
:10A9600009D0FF2A14D198B991B901F0CFF878B184
:10A9700001F098FD0AE058B9012909D100F09AFDCB
:10A9800030B1074905480860FFF7B4FD012010BD4C
:10A99000002010BDD8E1FF1F50200100C80A002090
:10A9A000D0E1FF1F074800214170C1600161416192
:10A9B000418081808161C161C180018101624181E9
:10A9C00070470000E0E1FF1F2DE9F047474EB088D7
:10A9D0007188484FDFF818817D1C0024884216D307
:10A9E000B069A0B97461B480012339787A1C184623
:10A9F00006F0CCF87080708848B1776198F8000054
:10AA0000012801D8756102E07088401C7080708850
:10AA10004FF00109B0BBF06808B1F46032E0316971
:10AA200081B398F8000001280DD83C70B48002234F
:10AA30007A1C0021012006F0A9F87080708800B10E
:10AA4000756134611EE03D78C846202D00D3002595
:10AA500008FA05F0084244D0681CC1B23970B480CD
:10AA600002237A1C012006F091F87080708818B1DA
:10AA700077617088401C7080306908FA05F820EA18
:10AA8000080030617088B169084328D07088B188A7
:10AA9000DFF86880401A85B2174F98F8000037F841
:10AAA0001000A84200D2054615482A467169007870
:10AAB00040F0800001F012FD706912492844706175
:10AAC000B088284480B2B080098888420CD298F8B7
:10AAD000000037F81000A84206D1C6F81890BDE86B
:10AAE000F0876D1CEDB2B0E7B461F8E7E0E1FF1F5D
:10AAF0004A200100080B002046200100BFE1FF1F93
:10AB0000402001004C200100F8B51B4C1B4D1C4E91
:10AB10002089002710B9E5613188E180E1880A1AAF
:10AB20001848E169007801F0ADF80004E169000C13
:10AB30000144E161218901448BB2238109D031882C
:10AB40008B4206D2114A1049127831F81210814214
:10AB500010D90F48017801200129009003D8002165
:10AB6000064A022003E029786A1C02205B1E06F0D8
:10AB7000C5F82781F8BD0000E0E1FF1F490B002068
:10AB80004E2001004120010046200100BFE1FF1FCF
:10AB90004B20010010B50446000702D52046FFF700
:10ABA00013FF600704D52046BDE81040FFF7ACBF97
:10ABB00010BD0000034804498078085C0349087010
:10ABC00001207047D8E1FF1F28E1FF1FC80A0020BD
:10ABD00010B505F0D9FF02490870012010BD000032
:10ABE000C80A00200B4910B5C8780022012804D0FB
:10ABF000022804D0032806D103E0074A02E000201F
:10AC000010BD064A521C8978002305F0BFFF0120C1
:10AC100010BD0000D8E1FF1F080B002029E1FF1F35
:10AC20002DE9FC5F4548007800287DD0444D042381
:10AC300000262978B146481C28704248007800EB6D
:10AC4000400293405B1E0192994202DB85F800901E
:10AC500001263D4A00241188FF2901D2491C118098
:10AC60003A4931F81000384900900988884200D1EB
:10AC7000012439490020DFF8D8804FF0010BDFF8BC
:10AC8000D4A091F800E045E0002276B11AF8001057
:10AC90005346FF2901D2491C195418F8001021B15C
:10ACA0001AF800308B4200D30122019918F8007085
:10ACB00002238B4007FA03F1009B994202DA0FB19D
:10ACC000012300E000233CB133B1D5F810C00BFAEA
:10ACD00000F141EA0C0129612049095C8F420ED044
:10ACE0001AF800708F4208D3D5F810C00BFA00F79D
:10ACF00047EA0C072F6185F8009008F800103AB178
:10AD000023B92A690BFA00F1114329610AF800906E
:10AD1000401CC0B27045B7D314B10B49A1F80090E4
:10AD20002869002808D000E006E06888002803D1E0
:10AD3000BDE8FC5FFFF748BEBDE8FC9FBDE1FF1F1B
:10AD4000E0E1FF1FBFE1FF1F24E1FF1F42200100E0
:10AD500027E1FF1F26E1FF1F4A20010028E1FF1F16
:10AD6000094809498078C97810B1084A815409E036
:10AD7000084A0020064B127802E01954401CC0B269
:10AD80009042FAD301207047D8E1FF1F27E1FF1F4F
:10AD900028E1FF1F4A200100034810B5807805F024
:10ADA000ABFF012010BD0000D8E1FF1F38B50D49F1
:10ADB0000022C878012804D0022804D0032806D134
:10ADC00003E0002038BD084A00E0084A521C002376
:10ADD0000093CB798C79897844EA032305F08EFFC0
:10ADE000012038BDD8E1FF1F490B002029E1FF1FDA
:10ADF0002DE9F0413C4E96F8800096F8905086F888
:10AE0000800096F884400440E00707D001F09AFAE9
:10AE100006F01AF83548006800B18047E00605D50D
:10AE200001F050FB3248006800B18047A00605D50C
:10AE300001F000FB2F48006800B18047600703D590
:10AE40002D48006800B18047022C08D12B480168CA
:10AE500011B196F888008847FF2086F888002007FF
:10AE60003DD52C09C5F3C000C5F38001244E254D06
:10AE700009D1002202EB40020A4416F83220C2F344
:10AE800083020D2A0AD0A20002EB4000471816F8F0
:10AE90003700C0F38300012811D015E01A4801687B
:10AEA00021F002010160307E20F080003076307C9D
:10AEB00020F080003074296889B102200EE055F836
:10AEC000241009B10420884716F83700C0F3830026
:10AED000092804D155F8241009B108208847BDE895
:10AEE000F0412320FEF7F4BC002007406820010059
:10AEF0006C20010070200100742001007820010006
:10AF0000000E00207C2001002CE1FF1F10B522481C
:10AF1000402404702148416841F4A0214160816CC3
:10AF200021F00F01816400218164416B41F4802193
:10AF300041632320FEF7CCFC194890F80C1141F036
:10AF4000800180F80C1190F80C110906FBD415490A
:10AF5000090A80F89C101349090C80F8B0101149B7
:10AF6000090E80F8B410FF2180F880100E4909689E
:10AF700001B104210D4A126802B10222114341F0CD
:10AF8000190180F8841080F8004190F80C1141F00C
:10AF9000400180F80C1110BD30E1FF1F008004401B
:10AFA00000200740000E00207420010078200100DE
:10AFB00070B500F00DF900282AD016480224164E6C
:10AFC0000470447003203463307014480546FDF764
:10AFD0004BFD022808D9114920461F39FDF74FFDC6
:10AFE00029462046FDF74BFD0D48224609490078C9
:10AFF00040F0800001F072FA2846FDF735FD316B14
:10B00000401A2946FDF73BFD044901200839087321
:10B0100070BD00008A0B002004E2FF1F8314002093
:10B0200051200100114910B50878022808D00328E2
:10B0300010D0042812D0052801D10020087010BDBE
:10B040000B48C07B282801D0A828F8D1BDE81040C3
:10B0500000F074BABDE8104000F098BD05480078D3
:10B0600040F0800000F0ACFDF4E7000004E2FF1FB8
:10B070005C140020512001001B4910B5087870B302
:10B0800001280ED005281DD0072823D017480078A6
:10B0900000F096FD164902200873BDE8104000F04C
:10B0A00075BD13481F38C07B2A2803D02F2805D030
:10B0B000AA2818D1BDE8104000F01EBBBDE8104022
:10B0C00000F0AABABDE8104040F2394209A10020C0
:10B0D00001F074BA00200870086B1F2803D1BDE886
:10B0E000104000F0E1B810BD04E2FF1F5220010043
:10B0F0007B1400202E2E5C2E2E5C2E2E5C736F7522
:10B100007263655C7573625C6D73635C75736264B6
:10B110005F6D73632E630000104910B54868C86006
:10B1200008B1012010BD0E48FDF79EFC68B10C4827
:10B130000838007B000604D50A48007840F08000FB
:10B1400001E00948007800F03BFD05490120173176
:10B15000087300F01BFD002010BD000004E2FF1F7B
:10B16000641400205120010052200100134810B542
:10B17000007900F08F01080605D501F00F004FF4AB
:10B180008032824001E001228A400D48007840F080
:10B1900080048C4210D10B48006810420CD00A4841
:10B1A000FDF762FC0949884206D12046BDE81040FF
:10B1B0000D22054901F092B910BD0000D8E1FF1F32
:10B1C00051200100C8E1FF1F7B140020555342535A
:10B1D00070B50B48FDF748FC094C0225173440B107
:10B1E000A4F11F00007B000608D40648007800F098
:10B1F000E7FC257300F0CAFC002070BD012070BD83
:10B20000641400205220010070B51148FDF72CFC99
:10B21000104C216B884202D82063032000E00420F8
:10B2200020700D480D49226B007840F0800001F03D
:10B2300055F907481F300546FDF716FC216B401AEB
:10B240002946FDF71CFC024900201731087370BD28
:10B250006414002004E2FF1F512001008A0B00202B
:10B26000064810B5028807480549007800F00AFD35
:10B2700005490863BDE81040FFF7FEBE58200100F5
:10B280008A0B00205220010004E2FF1F10B5044683
:10B29000400702D50020FFF7E3FF200703D5BDE8F4
:10B2A0001040FFF7BFBE10BD2DE9F05F7A4E326B44
:10B2B0001F2A01D2134600E01F230020774D784952
:10B2C00002E00C5C2C54401C9842FAD3DFF8D88181
:10B2D0000127DFF8D0A198F800001F2A40F0800B6A
:10B2E00069D16E48FDF7C0FB7049884263D1281DC3
:10B2F000FDF7BAFB694C1F34211DFDF7C0FBA4F11B
:10B300001700FDF7B1FB04F10801FDF7B8FB687BFE
:10B3100018B9A87B08B1102801D9277389E0E87B08
:10B320004FF002092A283ED022DC1A2850D00FDC28
:10B330000428F2D006DCE8B30328EED1BDE8F05FC4
:10B3400000F0A2BB1228E8D1BDE8F05F00F0BAB867
:10B35000232845D007DC1B2836D01E28DDD1BDE8C8
:10B36000F05F00F0DDB825283ED02828D5D147E091
:10B370009E2841D00FDC5528CFD004DC2F2853D095
:10B380003528CAD103E05A2826D09128C5D1BDE876
:10B39000F05F00F045BCA1282AD0A3285CD0A828E3
:10B3A0002ED0AA28B9D100F0ABFA002806D0287B0D
:10B3B000000601E004E053E049D43770BDE8F09F97
:10B3C000BDE8F05F00F034BCBDE8F05F00F00EBCFB
:10B3D000BDE8F05F00F064BABDE8F05F00F02CBAA1
:10B3E000BDE8F05F00F012BBBDE8F05F00F0E6BA28
:10B3F000BDE8F05FFFF7DCBDBDE8F05F00F09ABB91
:10B4000000F07EFA0028D9D0287B000605D586F802
:10B410000090BDE8F05F00F091B89AF8000000F0ED
:10B42000CFFB84F80C9004E0287C800705D4002032
:10B430002073BDE8F05F00F0A9BB00F061FA0028BE
:10B44000BCD0287B000602D437703762B6E798F884
:10B45000000040F08000E2E7584600F0B1FB5CE7F6
:10B460004446584600F0ACFB2078114C00F00F0128
:10B470004FF48030884021685546084320609AF890
:10B48000000000F09DFB28788740206807430620D5
:10B490002760307092E7000004E2FF1F5C14002078
:10B4A0008A0B0020522001005120010055534243D5
:10B4B000CCE1FF1F02490020087001207047000006
:10B4C000C80A002010B5FFF783FE002820D0114BDA
:10B4D000002080211870597002219970D9702024A1
:10B4E0001C7158719871D8710B48016808200A784E
:10B4F00012B11A54491C00E01C54401CC0B224284C
:10B50000F5D3064924200863BDE81040FFF77CBE50
:10B5100010BD00008A0B00201CE1FF1F04E2FF1F8A
:10B520000548C07CC107044800F11F0000D001217C
:10B53000017300F02BBB00005C1400202DE9F041EA
:10B54000304D314FDFF8C480A969686A002688420F
:10B550000AD33878002440F0800000F031FB88F8EE
:10B560000C6000F013FB08E02A492948097830F8FC
:10B570001140E86A844200D30446FFF7CDFD00B9CC
:10B580000024A86A68B374B1A96AE8692246014434
:10B59000387840F0800000F0A1FFA86A2044A8623B
:10B5A000E86A001BE862D5E90410AA6A41439142A7
:10B5B00003D1AE62696A08446862144808300746DD
:10B5C000FDF752FA001B3946FDF759FA002C06D058
:10B5D000E86A002803D10320287088F80C60BDE8D1
:10B5E000F081002CDFD0E96A28690144491EB1FBD3
:10B5F000F0F26869824200D90246E969686A05F09A
:10B60000E1FBC1E704E2FF1F512001007B14002091
:10B6100054200100BFE1FF1F2DE9F041324EDFF859
:10B62000CC800025B169706A884208D33048356300
:10B63000007800F0C5FA88F80C5000F0A7FAFFF780
:10B640006BFD20B1306B10B3B06A10B10FE0356301
:10B650001DE0F16A30690144491EB1FBF0F27069E6
:10B66000824200D90246F169706A05F0ABFB002006
:10B67000204A336BB16A08E0F7690C183C5D175C2F
:10B68000BC4201D0356202E0401C9842F4D3346BD6
:10B69000B06A0119B162F06A071BF762D6E90420AB
:10B6A00042438A4203D1B562716A084470620F480E
:10B6B00008300546FDF7D8F9001B2946FDF7DFF9EC
:10B6C000002C0ED017B1307805280AD1306A30B17D
:10B6D000002088F80C00BDE8F04100F057BA0120C6
:10B6E000F7E7BDE8F081000004E2FF1F7B140020B3
:10B6F000522001008A0B00202DE9F041DFF804817F
:10B70000414F0026D8F81810D8F82400884208D3F2
:10B710003E48C8F83060007800F052FA3E7300F0FE
:10B7200035FAFFF7F9FC08B9C8F83060D8F83010DE
:10B73000D8F828000844D8F81010401E884206D9CE
:10B74000BDE8F041FD2232A1002000F037BF00200B
:10B75000384907E0D8F82830D8F81C400A5C034480
:10B76000401CE254D8F830209042F3D3D8F8280097
:10B7700011000844C8F82800D8F82C20A2EB0102D8
:10B78000C8F82C2022D0454692B988B129690844CE
:10B79000401EB0FBF1F46869844200D90446224699
:10B7A000E969686A05F028FBAE62686A20440CE02B
:10B7B000D5E904125143814208D1E969686A05F06C
:10B7C0001BFBAE626969686A084468620E4808300B
:10B7D0000546FDF749F9D8F830402946001BFDF72A
:10B7E0004EF9002C0BD0D8F82C0018B198F80000B6
:10B7F000052804D13E73BDE8F04100F0C7B9BDE8AB
:10B80000F081000004E2FF1F7B14002052200100A1
:10B810002E2E5C2E2E5C2E2E5C736F757263655C13
:10B820007573625C6D73635C757362645F6D736383
:10B830002E6300008A0B002070B5FFF7C9FC0028BA
:10B8400026D0FFF769FC002822D0124800210622EA
:10B850000170114B427081701A7A0824D201C270B3
:10B86000017141718171C1710C481C630546FDF77E
:10B87000FBF8082808D9094920461F39FDF7FFF8C9
:10B8800029462046FDF7FBF8BDE87040FFF7BCBC39
:10B8900070BD00008A0B002004E2FF1F831400200B
:10B8A00070B5FFF795FC002822D0FFF735FC002883
:10B8B0001ED010480321002201700F494270042459
:10B8C0000B7ADB018370C2700C480C630546FDF7F0
:10B8D000CBF8042808D9094920461F39FDF7CFF8CD
:10B8E00029462046FDF7CBF8BDE87040FFF78CBC39
:10B8F00070BD00008A0B002004E2FF1F83140020AB
:10B900002DE9F0412948FDF7AFF8284D00BA113D67
:10B9100020F0FF04287D264E04430020C6E909409C
:10B92000E87B2F280AD004DC28280BD02A281CD139
:10B9300004E0A82810D0AA2817D109E0FFF7ECFBF3
:10B9400000282FD0E87DA97D41EA002044BA0CE010
:10B95000FFF7E2FB002825D01448001DFDF784F80E
:10B9600000BA20F0FF04287E0443306944430F48A6
:10B97000F4620938FDF778F80C4F01260E3768B1EC
:10B98000A04211D0287B000604D50A48007840F078
:10B99000800001E00848007800F012F93E7300F0E2
:10B9A000F5F80020BDE8F0810120FBE76D140020D0
:10B9B00004E2FF1F512001005220010010B5FFF7E3
:10B9C00007FC00281CD0FFF7A7FB002818D00D4A61
:10B9D0000D489169491E0B0E03700B0C43700B0A46
:10B9E0008370C17011690B0E03710B0C43710B0A4C
:10B9F0008371C17108201063BDE81040FFF704BCDB
:10BA000010BD000004E2FF1F8A0B002070B5FFF795
:10BA1000DFFB002830D0FFF77FFB00282CD0174831
:10BA20000021174A0170417081700821C17091692D
:10BA30000C240B0E03710B0C43710B0A8371C17143
:10BA40000221017211690B0C43720B0A8372C172DD
:10BA50000C4814630546FDF707F80C2808D9094976
:10BA600020461F39FDF70BF829462046FDF707F859
:10BA7000BDE87040FFF7C8BB70BD00008A0B002016
:10BA800004E2FF1F8314002010B5FFF7A1FB00287C
:10BA900035D01B4870211B4B017000214170DC68C0
:10BAA0005A6832EA040406D00624847028240473F9
:10BAB0004173DA6008E0DAB1134A127BE2B1052281
:10BAC0008270202202734173C170017141718171D2
:10BAD0000A22C271017241728172C1728173C17393
:10BAE0000174417412201863BDE81040FFF78CBB4D
:10BAF000022282703A22E5E781700173E3E710BD0C
:10BB00008A0B002004E2FF1F7B140020054910B5BA
:10BB1000002008600449FCF7B2FF044907200870C0
:10BB2000012010BDCCE1FF1F7B14002004E2FF1FA9
:10BB3000FFF7ECBF70B5FFF74BFB00281DD00F4897
:10BB400020220021027041700D4CC1770320226336
:10BB500020700C480949007840F0800000F0BEFCDD
:10BB600009480546FCF780FF216B401A2946FCF77F
:10BB700086FF054901200839087370BD8A0B002033
:10BB800004E2FF1F512001008314002010B5084972
:10BB90000848FCF774FF08480D220549007840F07A
:10BBA000800000F09BFC05490520087010BD0000D6
:10BBB0007B140020555342535120010004E2FF1F23
:10BBC00010B5044600F052FC200605D504F00F0124
:10BBD0004FF48030884001E00120A04002490A680B
:10BBE0001043086010BD0000C8E1FF1F0A4810B5EF
:10BBF000817C00F11F0429B101202073BDE81040B1
:10BC0000FFF7C4BFC07C054900F00100486005F0A3
:10BC1000F1F80020F1E700005C14002004E2FF1FAF
:10BC2000024900200873FFF7B1BF00007B14002019
:10BC300010B51048FCF718FF0E4C173478B1A4F17A
:10BC40001F00007B000604D50B48007840F0800000
:10BC500001E00A480078FFF7B3FF012004E0FFF796
:10BC60005BFA002805D000202073BDE81040FFF7E4
:10BC70008DBF10BD6414002051200100522001002E
:10BC8000704700002DE9F05F06004FEA0670DFF80C
:10BC9000BC904FEA906409EBC40B9246BBF802508B
:10BCA00088464FF0000706D119F83400C0F383002E
:10BCB0000D2800D10127AA4506D240F2B31224A1D3
:10BCC000002000F07BFC554620490020A03101EB0C
:10BCD000841103E00B5C08F80030401CA842F9D343
:10BCE0002948A0F1040A825DABF80220DAF80010BE
:10BCF000660819F83400F14001F00101C0F380102A
:10BD0000814209D117B198F8060060B101211E489F
:10BD1000B140001F02F09BFADAF80000F040C007C3
:10BD200008D0C82107E018486FF00101001F02F099
:10BD300082FAF1E78821154809F8341010F8941FA9
:10BD400021F0200101702846BDE8F09F000E002080
:10BD50002E2E5C2E2E5C2E2E5C736F757263655CCE
:10BD60006869635F68616C5C667265657363616C6A
:10BD7000655C6B323064785C757362645F4D4B3226
:10BD80003044352E6300000030E1FF1F00200740E3
:10BD9000FFF7ECB92DE9FC41474BA3F11C051878DE
:10BDA000A3F1080410F01F0002D001286AD16AE054
:10BDB00042484149DE7802783F4889781C38082E8D
:10BDC000C07876D2DFE806F0750411457575083045
:10BDD0003B482060122053E0002A6AD018B139484D
:10BDE00020600A204CE03848FAE70AB9012860D000
:10BDF00018B13648009000200BE03548FAE7009A69
:10BE000013782BB1D378967846EA03231A4400922C
:10BE1000401C8142F3D10098017899B32060C17829
:10BE2000827842EA01202BE062B318B129480090E1
:10BE300000200BE02848FAE7009A13782BB1D3785A
:10BE4000967846EA03231A440092401C8142F3D1BB
:10BE5000E1E722480090032901D0002008E001F02A
:10BE6000DDFC0BE000990A780AB111440091401CF6
:10BE700099788142F6D10098017819B12060007854
:10BE8000019006E015E001A9684600F02BF80028B3
:10BE90000DD0A1880198814208D9114980B2A080B3
:10BEA0000978491E084201D1012028710120BDE80E
:10BEB000FC810020FBE70000D8E1FF1F3B200100D0
:10BEC000EE20010001210100002101008521010077
:10BED0000221010087210100862101008821010043
:10BEE0003E20010030B5164A164B154CD278164D3F
:10BEF00024791B78212A02D0222A1ED114E09C42E8
:10BF00001BD1124A1378124A12780BB9012A14D0A5
:10BF100042B1104A026010460F4A1288104428604D
:10BF2000092007E00D4AF5E79C4206D10C4828603D
:10BF30000C4800880860012030BD002030BD0000A2
:10BF4000D8E1FF1F3F200100D0E1FF1F3B2001008F
:10BF5000BFE1FF1F85210100EC200100022101004B
:10BF6000C8200100EA20010070B51D481C4C007873
:10BF7000A4F1080410F01F000AD0194AA4F1140516
:10BF8000184B69781279012806D0022826D109E0D9
:10BF90001348163820601FE001B3A87882421DD2F2
:10BFA000002015E002F08F00020605D500F00F0614
:10BFB0004FF48032B24001E00122824009B900070B
:10BFC0000CD1A868104209D0E868104000D00120C8
:10BFD0001870000A58702360012070BD002070BDE9
:10BFE000D8E1FF1FC80A002070B5264B024619464B
:10BFF0001878498810F01F00A3F11C0604D001280E
:10C0000029D0022827D111E0012924D132B1012001
:10C0100000F062FAF08840F0020005E0002000F035
:10C020005BFAF08820F00200F08029E0187900F037
:10C030008F04200605D504F00F004FF480358540AD
:10C0400001E00125A540707828B1200703D0B06831
:10C05000284200D009B1002070BD2AB1204600F06E
:10C0600005FAF06828430AE03069284208D12046E2
:10C07000FEF708FA2046FFF78BFEF068A843F06051
:10C08000012070BDD8E1FF1F2DE9F05F5B4800265D
:10C09000017811F01F0F6FD1584F80781C3FB146C7
:10C0A0004FF0010A4FF4803B00287BD054480178C0
:10C0B0003846C07809B901285ED008B1514C6CE00F
:10C0C000514C6AE06078022804D0042847D0052843
:10C0D00061D146E049486179807881423AD17870EF
:10C0E00020794B49B8700020484A098802E002F8DC
:10C0F0000090401C8842FAD30125B8460AFA05F0A0
:10C10000D8F80810084202D02846FEF721FAD8F8DD
:10C1100008100BFA05F0084203D045F08000FEF746
:10C1200017FA6D1C102DE9D34FF00110C8E9020970
:10C130000120C8F81090FEF7C1F9E0794006B8F880
:10C14000060002D540F0010001E020F00100A8F84F
:10C15000060020E0E078A17841EA00201CE0E678C3
:10C1600019E0C6B9A07800F08F05280605D505F0BE
:10C170000F010BFA01F002E03AE00AFA05F0B968A3
:10C1800001432046B960FEF78BF92846FEF7F6F921
:10C19000284600F007F9207804442078002891D13F
:10C1A00021E0FFE74D4687F8019001245E46B9681B
:10C1B0000AFA04F0084202D02046FEF7C9F9B9682D
:10C1C00006FA04F0084203D044F08000FEF7C0F9FC
:10C1D000641C102CEBD34FF00110C7E902050020BE
:10C1E0003D61FEF76BF9054879788078884202D086
:10C1F0000020BDE8F09F0120FBE70000D8E1FF1F11
:10C200003B200100852101000221010020E1FF1FE8
:10C210003C2001002DE9F84F454800273E460078B4
:10C22000BA4600F01F00B94601287ED140491C39AA
:10C230004878002876D0002000903E4802780846D2
:10C24000C0780AB9012870D08B4608B13A4C65E035
:10C250003A4C63E06078022804D004280CD005280A
:10C260005AD11BE061799BF80100814254D0E078FB
:10C27000A17841EA002050E02D48A778E6780179BE
:10C280004FF00009B94247D18078B04244D1012033
:10C2900000902B4810F807A0C6553DE024490879C6
:10C2A000B84239D1A07800F08F085FEA086005D560
:10C2B00008F00F004FF48035854002E0012505FAB3
:10C2C00008F58878B04215D1DBF8081020462943DC
:10C2D000CBF80810DBF80C10A943CBF80C10FEF7D4
:10C2E000DFF84046FEF74AF9404600F05BF849EABD
:10C2F000050911E056450FD119EA050F0CD1DBF8FD
:10C3000008104046A943CBF80810DBF80C10A943ED
:10C31000CBF80C10FEF71CF9207804442078002894
:10C3200098D10098BDE8F88FFFE70020FAE70000F9
:10C33000D8E1FF1F3B2001008521010002210100FF
:10C3400020E1FF1F01201449002201EB800383F844
:10C35000C020401C1028F8D310484023438000F12F
:10C36000A0034360C8230370027200F59073436119
:10C37000C2610D2081F8C000094B4FF055301860A4
:10C3800011F8940F40F0020001F81409FF20087022
:10C39000087208730A76704700200740000E0020DC
:10C3A0002CE1FF1F2DE9F04105461C4E00064FF021
:10C3B00000084FF00101A6F1A00705F00F0418D501
:10C3C00001EB44008140EFF3108010F0010F72B6D2
:10C3D000134A136843EA0103136000D162B607EB06
:10C3E000441006EB04218031C0F81C804161BDE897
:10C3F000F08168008140C943094801F01CFF0848EA
:10C40000001D415D07EB4410418006EB04214160B3
:10C410008821017080F80880E9E70000A00E002064
:10C420002CE1FF1F10B5FDF7B3FFBDE81040FFF78B
:10C430007FBB0000034810F8841F21F02001017029
:10C44000704700000020074010B5FEF7E9FBBDE88B
:10C450001040FDF7A1BF0000002904D1024900F0FF
:10C460007F0081F898007047002007400007810E88
:10C470000348084410F8C01F41F0020101707047E2
:10C4800000200740082202490020FFF7FBBB000004
:10C49000D8E1FF1F024881684FF4007001F022BB11
:10C4A00050E0FF1F00221146802000F017B8000066
:10C4B0000248034902780020FFF7E4BB3E20010058
:10C4C000C80A0020034810F8841F41F020010170C1
:10C4D00070470000002007407047000070B5154607
:10C4E00000F00F00022202EB8004104A002302EB4E
:10C4F000C400458002F1A00000EB841002E0CE5C95
:10C50000C6545B1CAB42FAD3094960080968C140B4
:10C51000C90701D0882100E0C82102F834100121A8
:10C520008140034801F093FE284670BD000E0020B4
:10C530002CE1FF1F0020704710B5002A06DA22F018
:10C540000042D21D22F00703102203E0D21C22F089
:10C5500003030C2213B19C188C4201D9012010BD99
:10C56000024401448360C0E90021C91AD0188842FE
:10C5700002D810600246F9E70020106010BD0000EC
:10C5800010B5044602F0D0FF002805D04FF6FF7129
:10C59000DFF808C0206800DF10BD000089EF000050
:10C5A00010B5044602F0C0FF002803D0DFF808C031
:10C5B000206800DF10BD0000D9EE00002DE9F04139
:10C5C00016460F4600281CD1EFF3108000F001053D
:10C5D00072B600231A461946184600F009F90400FD
:10C5E00003D13146384600F045F905B962B6002C52
:10C5F00007D1EFF30380C00603D1BDE8F04104F09A
:10C60000EFBEBDE8F081000010B524220D490E48B0
:10C61000FCF7A7F904F0BAFF0C4804F0B1FF04F0EE
:10C62000B5FD0B490B4A0C4B08604FF40071B0FB91
:10C63000F1F01160094901221A60086009490848AF
:10C64000086010BD881C0100B4F8FF1FA1CC0000D9
:10C6500038E2FF1F14E2FF1F18E2FF1F1CE2FF1F5A
:10C66000B4F6FF1F20E2FF1F044841788078814222
:10C6700001D001207047002070470000E8E0FF1F54
:10C6800070B51548C0782E2240F3C01013A1401C8D
:10C69000FFF794FF4FF40075BB2229461B48FCF7B7
:10C6A00092F91A480024C0F80042C0F80442C0F8C9
:10C6B0000842C0F80C42BB222946A0F50470FCF7E2
:10C6C00082F91348C0F80042C0F80442C0F808429A
:10C6D000C0F80C4270BD000000B006402E2E5C2E4B
:10C6E0002E5C2E2E5C736F757263655C6869635F88
:10C6F00068616C5C667265657363616C655C6B3206
:10C700003064785C756172742E630000B808002094
:10C71000A806002000F0E4BB00F0E2BB02488079EC
:10C72000002800D00120704754E1FF1F0248C07963
:10C73000002800D00120704754E1FF1F2DE9F0418F
:10C740004B212148FCF747F94B272048FCF78CF98F
:10C750001F4E1E4C1C4DB04215D16079217941EA23
:10C7600000234B2B01D21A4601E04FF04B0201D9B6
:10C770001F4601E04FF04B0714491348FCF721F81E
:10C78000002085F847004B211048FCF724F90F4999
:10C790003046FCF774F92771380A60714122E91DAF
:10C7A000E01DFCF70EF895F8490015F8481F41EA1E
:10C7B000002204F8482F100A6070A878A070BDE825
:10C7C000F04100F08BB8000000140020001F002092
:10C7D000646C766B10B5054C4121E01DFCF7FBF84D
:10C7E000002004F8480F607010BD0000001F0020FA
:10C7F0002DE9F0471A4F81461D4616468846F81D1A
:10C80000FBF769FF441CB9F1000002D04146FCF778
:10C81000E2F8002006B1308005B12870F8790028D0
:10C820001CD0444502D8F91D224604E0A4EB0800C0
:10C83000C1194246C91DB9F1000F06D097F8490049
:10C8400097F8483043EA0020308016B14846FBF79D
:10C85000B8FF15B197F84A0028700120BDE8F087AD
:10C86000001F002002488079002800D00120704776
:10C87000001F00202DE9F04188460746FBF72BFFFB
:10C88000124D441C41263146E81DFCF7A4F8412C0A
:10C8900002D83946224602E0413CE11932462C4694
:10C8A000E81DFBF78EFF84F848804FEA182084F8D3
:10C8B000490000F00BF908B1012003E000F008F98D
:10C8C00000B1022084F84A00BDE8F081001F00207A
:10C8D0000149887170470000001F002070B50022D8
:10C8E00011461046FCF796FF082223492348FBF720
:10C8F00068FF234C22781046627840EA0220A27832
:10C90000E17840EA02401F4D40EA0160A8420FD1A1
:10C910006079217941EA0020082804D260792179E0
:10C9200041EA002200E0082215491448FBF749FFBC
:10C9300012492846FCF7A3F8104908200871002086
:10C940004871014620780143607841EA0021A078CF
:10C9500041EA0041E07841EA0061A94205D16079ED
:10C96000217941EA0020082804D2BDE8704003483C
:10C9700001F092BB70BD00003A22010054E1FF1F9C
:10C9800000FC0100646C766B02498871084601F076
:10C9900083BB000054E1FF1F0249C871084601F043
:10C9A0007BBB000054E1FF1F2DE9F0410F46064616
:10C9B0004FF0FF340025DFF83C8012E0705D082165
:10C9C00001F0B4FF84EA006408204146002C02DA3A
:10C9D00081EA440400E06400401E10F0FF00F5D13D
:10C9E0006D1CBD42EADB2021204601F09FFFC043C1
:10C9F000BDE8F081B71DC1042DE9F0410E46174690
:10CA00002021C04301F092FF04460025DFF83C805E
:10CA100012E0705D082101F089FF84EA00640820BB
:10CA20004146002C02DA81EA440400E06400401E22
:10CA300010F0FF00F5D16D1CBD42EADB202120463D
:10CA400001F074FFC043BDE8F0810000B71DC104D0
:10CA500070B514460D460646FF2A07D84FF4EE720D
:10CA600009A10020FFF7AAFD022070BD00F024FC00
:10CA700008B10E2070BD2A462146304600F07CFDEC
:10CA80000028F7D01C2070BD2E2E5C2E2E5C2E2E82
:10CA90005C736F757263655C6461706C696E6B5C0E
:10CAA000647261672D6E2D64726F705C6961705F76
:10CAB000666C6173685F696E74662E6300000000C7
:10CAC000C10600F00F0000D4093070470020704705
:10CAD0000120704710B500231A4600F039FA0028EB
:10CAE00000D0012010BD10B504F064FA012800D078
:10CAF000002010BD2DE9F041144E00244FF4F845FC
:10CB00003078012806D04FF49B7211A10020FFF766
:10CB100055FD09E0B078022748B14FF49E720CA190
:10CB20000020FFF74BFD37700220BDE8F081204662
:10CB300000F02AF810B137701E20F6E704F5806483
:10CB4000AC42F4D30120B0700020EEE7C4E0FF1F38
:10CB50002E2E5C2E2E5C2E2E5C736F757263655CC0
:10CB60006461706C696E6B5C647261672D6E2D64BC
:10CB7000726F705C6961705F666C6173685F696E2B
:10CB800074662E630000000070B5214E04463078B4
:10CB9000012805D0FE221FA10020FFF70FFD18E09D
:10CBA0004FF48060B4FBF0F100FB1141022511B19C
:10CBB0004FF4837208E0F17869B1D6E902121144AA
:10CBC000A14208D040F20D1212A10020FFF7F6FC9E
:10CBD0003570022070BD4FF4FE32B4F5004F01D322
:10CBE000944211D30121F170C6E90240204600F0C1
:10CBF00039FF222803D00028ECD0357070BD2046C4
:10CC000000F05AFB0028F9D035701D2070BD0000DF
:10CC1000C4E0FF1F2E2E5C2E2E5C2E2E5C736F75D3
:10CC20007263655C6461706C696E6B5C6472616791
:10CC30002D6E2D64726F705C6961705F666C6173DC
:10CC4000685F696E74662E63000000004FF48060B8
:10CC50007047000010B5242804D2064951F820007E
:10CC6000002805D1832204A10020FFF7A7FC0AA019
:10CC700010BD0000801B01002E2E5C2E2E5C2E2E7F
:10CC80005C736F757263655C6461706C696E6B5C1C
:10CC90006572726F722E6300000000007047000022
:10CCA0002DE9F0411E4615460C46074604F0FCFCF3
:10CCB000022C1ED0002C2FD1384602F089FE03280A
:10CCC0002AD0304604F03CFA800725D4384602F0DA
:10CCD0007FFE0746304604F035FA0446304604F03D
:10CCE00035FA01463B4622462846BDE8F04103F0AE
:10CCF00075BC0A480068A8420ED1304604F022FAFA
:10CD00000446304604F022FA0646384602F060FE39
:10CD1000034622463146E7E7BDE8F081B4F8FF1F3D
:10CD20002DE9F0411B4E04461746B07F8846550258
:10CD300058B92946404602F007FE032802D0214692
:10CD400003F0F8FBB07F00280FD07068A0420CD829
:10CD5000B068A0420BD008D9F068401C00D1F46044
:10CD6000F068A04200D20446F460BDE8F081B069EA
:10CD70002A461044B061E019B060F07F20B1BDE8F0
:10CD8000F041002003F076BC41462046BDE8F0416A
:10CD900003F078BBB4F8FF1FF0B518A185B009689F
:10CDA00004910278002104AB5C5C944224D0491CBD
:10CDB0000329F9D312A1002291E878006F46815C23
:10CDC0008DE87800A1F1610CBCF1190F14D920296C
:10CDD00001D2052910D14FF0000C17F80CE08E4558
:10CDE0000AD00CF1010CBCF1100FF6D3521C0B2A27
:10CDF000E5D3012005B0F0BD0020FBE7E5002000F1
:10CE0000222A2B2C2E2F3A3B3C3D3E3F5B5C5D7C27
:10CE100070B50446204600F017F8054605B170BD10
:10CE2000034902480968884700BFF8E704F0014059
:10CE300014E1FF1F016841F470010160BFF36F8FBF
:10CE4000BFF34F8F7047704730B1C06910B10068B1
:10CE5000022803D06D2070470420704700207047DF
:10CE600010B530B15B1E194201D11A4203D06520C2
:10CE700010BD042010BD03688B4204D840681144E3
:10CE80001844884201D2662010BD002010BD000069
:10CE90000349884201D06B20704700207047000092
:10CEA0006B66656B10B50C4C70212170FFF7CCFFE1
:10CEB000002807D10949204609688847207881065B
:10CEC00001D5672010BDC10601D5682010BDC0077F
:10CED000FCD0692010BD00000000024010E1FF1FDF
:10CEE00070B50D4D00202C7874B100212970A978FF
:10CEF00009B100F0F1FA022C05D06978032902D0BB
:10CF0000002800D1212070BD40F2331203A100207F
:10CF1000FFF754FB022070BD98E0FF1F2E2E5C2E01
:10CF20002E5C2E2E5C736F757263655C6461706C31
:10CF3000696E6B5C647261672D6E2D64726F705CDC
:10CF4000666C6173685F6465636F6465722E63000D
:10CF50003EB51D460446302901D3012000E00020E3
:10CF6000402211A1FFF72AFB0C2204F120016846A0
:10CF7000FBF727FC1949019888420BD11849009802
:10CF8000884201D102203EBD1549FC39884208D1B2
:10CF900001203EBD204603F0E7FF00B90DB103209C
:10CFA0003EBD00203EBD00002E2E5C2E2E5C2E2E9F
:10CFB0005C736F757263655C6461706C696E6B5CE9
:10CFC000647261672D6E2D64726F705C666C617344
:10CFD000685F6465636F6465722E6300009996975D
:10CFE0008F9E939B2DE9FF5F4FF00005DDF8389091
:10CFF0005FEA0308934607462C4614D05FEA09000F
:10D0000011D00020C8F800000646C9F80000FFF75C
:10D010005DFDDFF88CA090B14FF40040022F04D0EA
:10D02000032F0AD023E0652234E0BBF1000F04D0C7
:10D030000199814201D0182519E006460EE0FFF75C
:10D0400047FD98B1012F02D0032F0AD00FE0BBF1AA
:10D05000000F03D0019808B1172508E0DAF8004066
:10D0600005E0104886681048046800E01925FFF7BD
:10D070005DFB08B9012F04D02DB1284604B0BDE8EE
:10D08000F09F1925F9E724B1C8F80060C9F80040FD
:10D09000F3E79D2205A10020FFF790FA0220EDE7BB
:10D0A000841C01005CE1FF1F501C01002E2E5C2E31
:10D0B0002E5C2E2E5C736F757263655C6461706CA0
:10D0C000696E6B5C647261672D6E2D64726F705C4B
:10D0D000666C6173685F6465636F6465722E63007C
:10D0E00010B50C4C207830B1AC220BA10020FFF71A
:10D0F00065FA022010BDFF2230211448FBF763FCC3
:10D1000001202070002060706060A060E060A0706E
:10D11000E07010BD98E0FF1F2E2E5C2E2E5C2E2E90
:10D120005C736F757263655C6461706C696E6B5C77
:10D13000647261672D6E2D64726F705C666C6173D2
:10D14000685F6465636F6465722E630038EEFF1F6D
:10D150002DE9FE4F484F0546894638781446012888
:10D1600007D0C12245A10020FFF728FA0220BDE820
:10D17000FE8FF8784FF0010A18B9BD60FD6087F89E
:10D1800003A0B8784FF00308002852D1F868854210
:10D1900001D1012100E000212044F86031B378681A
:10D1A000C0F13006A64200D916464149324608442D
:10D1B0004946FBF706FB7868A41B3044B14435446C
:10D1C000786030282BD302D14FF0010001E04FF0FE
:10D1D00000004FF0E30229A1FFF7F0F9D7E90112AF
:10D1E00001233348FFF7B4FE787001E087F801802F
:10D1F00001A8009002AB01227878B968FFF7F2FE2F
:10D20000E8B9B878FC2280F001001CA1FFF7D6F93C
:10D21000019800F007F990B987F802A001E0B8780A
:10D2200080B1D7E90120224900F06EF838B9B8780A
:10D2300040B122464946284600F066F810B187F80A
:10D24000008094E77878012804D0022805D00328CC
:10D250000FD105E04FF4F84004E04FF4FE3001E058
:10D260001448C0682919814203D302203870102065
:10D270007DE700207BE7000098E0FF1F2E2E5C2E4C
:10D280002E5C2E2E5C736F757263655C6461706CCE
:10D29000696E6B5C647261672D6E2D64726F705C79
:10D2A000666C6173685F6465636F6465722E6300AA
:10D2B00038EEFF1F5CE1FF1F10B5EFF3108101F0A6
:10D2C000010472B6FCF7D0F8002C00D162B610BD94
:10D2D00070B50E460500144613D020211046FBF70A
:10D2E0009CFB2660E8686060D5E90101B0FBF1F0C5
:10D2F000A0600420E06020616061A061E061002026
:10D3000070BD042070BD00002DE9F84F364E044674
:10D310000025307817468846012805D0782233A1A9
:10D320000020FFF74BF90BE070694FF0020A8442CE
:10D3300009D280222DA10020FFF740F986F800A035
:10D340000220BDE8F88FB0784FF0010B48B986F89D
:10D3500002B0204602F004FA050002D086F800A0D0
:10D3600040E0B1464E46D6E901028118A14214D8E8
:10D37000B1698B682A499847050002D089F800A056
:10D3800030E0B168FF2226480091FBF71CFB86F8CD
:10D3900001B071680098084470600FB3D6E90301CA
:10D3A0000844A04204D8204602F0DAF90500E5D18D
:10D3B0007068B168B146201A0E1AB74200D23E46D4
:10D3C0001749324608444146FBF7FBF936B10020C5
:10D3D00089F801003444B044BF1BC3E70120F7E7DC
:10D3E000C9F814402846ACE7A8E0FF1F2E2E5C2E9B
:10D3F0002E5C2E2E5C736F757263655C6461706C5D
:10D40000696E6B5C647261672D6E2D64726F705C07
:10D41000666C6173685F6D616E616765722E630033
:10D4200068EEFF1F70B51D4D0446287808B14622EE
:10D430002BE04CB3606838B3A06828B3E06818B339
:10D44000206908B36069F8B1A069E8B1FF224FF420
:10D4500080611348FBF7B7FA01266E700020A870B0
:10D460006860A860E8602861C5E905042068804715
:10D47000002808D1A8690069804704000BD0A8697A
:10D4800040688047204670BD4C2206A10020FFF76F
:10D4900095F8022070BD2E7070BD0000A8E0FF1F3F
:10D4A00068EEFF1F2E2E5C2E2E5C2E2E5C736F7589
:10D4B0007263655C6461706C696E6B5C64726167F9
:10D4C0002D6E2D64726F705C666C6173685F6D6148
:10D4D0006E616765722E630070B5184C0025207868
:10D4E00010B1012807D00FE0CA2215A10020FFF7D4
:10D4F00065F8022070BD607830B9A0691D49836865
:10D50000D4E9010298470546A0694068804706466D
:10D51000FF224FF480611748FBF755FA0120607035
:10D520000021A1706160A160E160216161612170F1
:10D530000EB1304670BD284670BD0000A8E0FF1F48
:10D540002E2E5C2E2E5C2E2E5C736F757263655CC6
:10D550006461706C696E6B5C647261672D6E2D64C2
:10D56000726F705C666C6173685F6D616E61676538
:10D57000722E630068EEFF1F10B5EFF3108303F007
:10D58000010472B6FCF7C0F9002C00D162B610BDE0
:10D590008021017001780906FCD5704770470000B2
:10D5A000034601220149002018470000E4F8FF1F4C
:10D5B0000248006DC0F340007047000000F00F40CB
:10D5C000F8B51948016841F0080101601748816BFE
:10D5D00041F4A0518163164E85153561154C10201C
:10D5E000C4F8C000C4F8D400D4F8C80040F010005B
:10D5F000C4F8C800606D20F0020060650E48456008
:10D60000FFF764FA48B9B56154F8C00F40F0400024
:10D610002060606940F04000606108480090401E52
:10D620000090FCD1F8BD000014ED00E00080044043
:10D6300000C0044000F00F4000A0044040420F0032
:10D64000AFF300800449102210B1C1F8C820704720
:10D65000C1F8C4207047000000F00F40FFF7F2BF90
:10D66000274D284C4FF6FF770526264839461830B7
:10D67000DFF894C000DFA068214905EB8010403935
:10D68000FBF7FAFAA0681E4905EB801040224039EA
:10D69000FBF797F8A068DFF874C0401CB0FBF6F108
:10D6A00006FB1100A0601748203000DF39461848FB
:10D6B000DFF860C000DF2078D0B100202070114872
:10D6C00039462030DFF840C000DFE068402205EB3B
:10D6D0008011002003F0A0FAE068DFF830C0401CA1
:10D6E000B0FBF6F106FB1100E0600648103000DFE9
:10D6F0000748DFF824C000DF002000F02DFAB4E76F
:10D70000A8E2FF1F08E0FF1F5DF2000025F2000005
:10D71000E8E3FF1F89EF0000D9EE000070B5104C60
:10D72000002047F6FC316060A060E0602061FFF7F8
:10D730003BF960600B494FF40040FFF735F94FF4B7
:10D740008065A06029464FF4F840FFF72DF9E060AE
:10D7500029464FF4FE30FFF727F9206170BD000025
:10D7600030E0FF1FFC7B01000048704744E0FF1FD2
:10D770000021064B0A6A01209A4200D00020496A23
:10D78000034A914200D0002070470000939D939B74
:10D790000099969700B5FFF7EBFF002801D0002015
:10D7A000806A00BD014840687047000030E0FF1FFC
:10D7B000014880687047000030E0FF1F0048704754
:10D7C00094E4FF1F0048704752E4FF1F0120C1038B
:10D7D000054B0A6A9A4200D00020496A034A9142E6
:10D7E00000D00020704700008F9E939B0099969771
:10D7F00000B5FFF7EBFF002802D04FF40040806A2D
:10D8000000BD00000048704745E4FF1F0048704716
:10D8100073E4FF1F0048704714E4FF1F004870477F
:10D820009DE4FF1F0048704749E0FF1F70B5FFF7F8
:10D8300075FF1F4801F000F801F034FF1C4831214A
:10D840002030FBF7EAF81A481A492030FAF7ADFF02
:10D85000174819A12030FAF7A8FF15495E31A1F148
:10D860003E00FAF7A2FF1249A031A1F18000FAF7B9
:10D870009CFF0F4800242030FAF72DFF0C4AC1B25C
:10D880000220A93200EB41001070032050700220EA
:10D890000023A2F1890508E02E5D1654401CC0B299
:10D8A0001354401C641CC0B2E4B28C42F4D370BD6B
:10D8B000F4E3FF1F44E0FF1F303030300000000071
:10D8C00010B5124C207830B1612211A10020FEF772
:10D8D00075FE022010BD002211461046FBF79AFF8C
:10D8E00008B11A2010BD00206070A070E070A06028
:10D8F000E060207120616061A0614FF48061124896
:10D90000FBF769F801202070002010BDC4E0FF1F64
:10D910002E2E5C2E2E5C2E2E5C736F757263655CF2
:10D920006461706C696E6B5C647261672D6E2D64EE
:10D93000726F705C6961705F666C6173685F696E5D
:10D9400074662E630000000068F2FF1F10B500230C
:10D9500005E0DC0021FA04F4C4545B1CDBB2934202
:10D96000F7D310BD2DE9F05F2E4F04468B46387873
:10D9700016464FF4F841012808D04FF4BC722AA192
:10D980000020FEF71BFE0220BDE8F09F89464C45B3
:10D9900001D31F20F8E7FFF79BF8A0B3C4F5F845C3
:10D9A000281FB04201D9324600E02A1F5946B84626
:10D9B000B869FFF721F84FF4806A0746C8F81800E5
:10D9C000544507D22648324620445946FAF7F9FE14
:10D9D0000020D9E7A019484522D10BEB050010F82B
:10D9E000015C001FFBF740F865F31F604546874266
:10D9F00001D02320C8E75A4631462046FFF7BCFD38
:10DA000010B11C20C0E70BE0524615490020FFF77B
:10DA10001FF80446FFF782FE012068702046B3E736
:10DA20002220B1E7C4E0FF1F2E2E5C2E2E5C2E2E8E
:10DA30005C736F757263655C6461706C696E6B5C5E
:10DA4000647261672D6E2D64726F705C6961705FC6
:10DA5000666C6173685F696E74662E630000000017
:10DA600068F2FF1F10B504460F484FF4F8410078E4
:10DA7000012807D04FF4DD720CA10020FEF79EFDB7
:10DA8000022010BD8C4201D31F2010BDFFF720F8EB
:10DA900000B10CB1222010BD00204FF48072BDE80F
:10DAA0001040D101FEF7D4BFC4E0FF1F2E2E5C2E24
:10DAB0002E5C2E2E5C736F757263655C6461706C96
:10DAC000696E6B5C647261672D6E2D64726F705C41
:10DAD0006961705F666C6173685F696E74662E63FE
:10DAE000000000000246084810B500EB810050F825
:10DAF000040C002806D0114601F0C2FABDE810401F
:10DB000001F0AEBA10BD000024EDFF1F074910B5AB
:10DB10004FF400400860FAF7DFFC054A0549064863
:10DB2000DFF818C000DF002010BD000008ED00E0A5
:10DB3000D8E7FF1F0A200300A1DB0000D1F200009C
:10DB4000044901224A7008B1022000E00120087156
:10DB50007047000050E0FF1F044901220A7008B11D
:10DB6000022000E00120C8707047000050E0FF1F55
:10DB7000044901228A7008B1022000E001204871A6
:10DB80007047000050E0FF1F0348DFF810C08168B5
:10DB9000042000DF7047000050E0FF1FF1EA0000A2
:10DBA0004FF00108474646464FF0000B4546FEF74A
:10DBB000C5FD60217948DFF8E8C100DFDFF8E4C186
:10DBC00000DFDFF8E4A15446CAF80800FFF7F8FCCC
:10DBD0000120FFF737FD0120FFF732FD0120FFF79D
:10DBE0003DFDFBF735FC00F055FA00F054FAFFF765
:10DBF0001DFE03F0BBF8012003F0DAFB002002F069
:10DC0000C1FF0120A0714FF00B090023674A48F6BD
:10DC10000B016748DFF89CC100DF00224FF6FF715F
:10DC200040F23720DFF890C100DFDFF890C100DF5D
:10DC30000446800501D5FDF7DBF8600702D5022018
:10DC400002F0B6FBE0060FD5032002F0B1FB002086
:10DC500002F098FF0020FFF7F5FC0020FFF7F0FC32
:10DC60000020FFF7FBFCFEE7A00602D5032002F030
:10DC70009FFBE0073AD05A2003F0D2FB9AF8060047
:10DC8000A0B3012809D0032814D005282ED10020E4
:10DC90008AF8060002F076FF28E0B9F1000F04D000
:10DCA000A9F101005FEA000920D1012002F06AFF1A
:10DCB000032119E002F05EFFC0B1BBF1000F12D1E9
:10DCC0003A4A002388323E493E48DFF8E8C000DF88
:10DCD00000233D4A3D493E48DFF8D8C000DF4FF001
:10DCE000010BCAF80C0002218AF80610A00794D58F
:10DCF0004DB1022D0DD0FFF75BFC70B9002501205E
:10DD000002F055FB09E0FFF753FC012805D102257D
:10DD100003E0002002F04BFB01259AF80000544676
:10DD200098B1E078012801D002280ED1B8F1000F97
:10DD300002D04FF0000805E04FF00108012801D1A2
:10DD4000002020704046FFF77DFCA07878B1607914
:10DD5000012801D002280AD10EB1002604E00126D4
:10DD6000012801D10020A0703046FFF777FC6078D1
:10DD700000283FF452AF2079012802D002287FF416
:10DD80004CAF0FB1002704E00127012801D100208A
:10DD900060703846FFF754FC3FE70000F8EAFF1FC9
:10DDA000B1EC000029F5000050E0FF1F08E5FF1F5F
:10DDB00039040100ADF4000051EB000099EA0000C5
